{
    "_format": "hh-sol-artifact-1",
    "contractName": "MarketSentiment",
    "sourceName": "contracts/MarketSentiment.sol",
    "abi": [
        {
            "inputs": [],
            "stateMutability": "nonpayable",
            "type": "constructor"
        },
        {
            "anonymous": false,
            "inputs": [
                {
                    "indexed": false,
                    "internalType": "uint256",
                    "name": "a",
                    "type": "uint256"
                },
                {
                    "indexed": false,
                    "internalType": "uint256",
                    "name": "b",
                    "type": "uint256"
                },
                {
                    "indexed": false,
                    "internalType": "address",
                    "name": "voter",
                    "type": "address"
                },
                {
                    "indexed": false,
                    "internalType": "string",
                    "name": "ticker",
                    "type": "string"
                }
            ],
            "name": "tickerupdated",
            "type": "event"
        },
        {
            "inputs": [
                {
                    "internalType": "string",
                    "name": "_ticker",
                    "type": "string"
                }
            ],
            "name": "addTicker",
            "outputs": [],
            "stateMutability": "nonpayable",
            "type": "function"
        },
        {
            "inputs": [
                {
                    "internalType": "string",
                    "name": "_ticker",
                    "type": "string"
                }
            ],
            "name": "getVotes",
            "outputs": [
                {
                    "internalType": "uint256",
                    "name": "a",
                    "type": "uint256"
                },
                {
                    "internalType": "uint256",
                    "name": "b",
                    "type": "uint256"
                }
            ],
            "stateMutability": "view",
            "type": "function"
        },
        {
            "inputs": [],
            "name": "owner",
            "outputs": [
                {
                    "internalType": "address",
                    "name": "",
                    "type": "address"
                }
            ],
            "stateMutability": "view",
            "type": "function"
        },
        {
            "inputs": [
                {
                    "internalType": "uint256",
                    "name": "",
                    "type": "uint256"
                }
            ],
            "name": "tickersArray",
            "outputs": [
                {
                    "internalType": "string",
                    "name": "",
                    "type": "string"
                }
            ],
            "stateMutability": "view",
            "type": "function"
        },
        {
            "inputs": [
                {
                    "internalType": "string",
                    "name": "_ticker",
                    "type": "string"
                },
                {
                    "internalType": "bool",
                    "name": "_vote",
                    "type": "bool"
                }
            ],
            "name": "vote",
            "outputs": [],
            "stateMutability": "nonpayable",
            "type": "function"
        }
    ],
    "bytecode": "0x608060405234801561001057600080fd5b50336000806101000a81548173ffffffffffffffffffffffffffffffffffffffff021916908373ffffffffffffffffffffffffffffffffffffffff160217905550610ddc806100606000396000f3fe608060405234801561001057600080fd5b50600436106100575760003560e01c806327d3410c1461005c5780635f6449ad1461007857806376152ab214610094578063805265e5146100c45780638da5cb5b146100f5575b600080fd5b610076600480360381019061007191906107ec565b610113565b005b610092600480360381019061008d9190610848565b610333565b005b6100ae60048036038101906100a991906108c7565b610440565b6040516100bb919061097c565b60405180910390f35b6100de60048036038101906100d99190610848565b6104ec565b6040516100ec9291906109ad565b60405180910390f35b6100fd610593565b60405161010a9190610a17565b60405180910390f35b6002826040516101239190610a6e565b908152602001604051809103902060000160009054906101000a900460ff16610181576040517f08c379a000000000000000000000000000000000000000000000000000000000815260040161017890610ad1565b60405180910390fd5b6002826040516101919190610a6e565b908152602001604051809103902060030160003373ffffffffffffffffffffffffffffffffffffffff1673ffffffffffffffffffffffffffffffffffffffff16815260200190815260200160002060009054906101000a900460ff161561022d576040517f08c379a000000000000000000000000000000000000000000000000000000000815260040161022490610b63565b60405180910390fd5b600060028360405161023f9190610a6e565b9081526020016040518091039020905060018160030160003373ffffffffffffffffffffffffffffffffffffffff1673ffffffffffffffffffffffffffffffffffffffff16815260200190815260200160002060006101000a81548160ff02191690831515021790555081156102ce578060010160008154809291906102c490610bb2565b91905055506102e9565b8060020160008154809291906102e390610bb2565b91905055505b7f3f02e6da2d3423fb90c77b85e149620faac44650a2293529132014c94c8a68d88160010154826002015433866040516103269493929190610bfb565b60405180910390a1505050565b60008054906101000a900473ffffffffffffffffffffffffffffffffffffffff1673ffffffffffffffffffffffffffffffffffffffff163373ffffffffffffffffffffffffffffffffffffffff16146103c1576040517f08c379a00000000000000000000000000000000000000000000000000000000081526004016103b890610cb9565b60405180910390fd5b60006002826040516103d39190610a6e565b9081526020016040518091039020905060018160000160006101000a81548160ff02191690831515021790555060018290806001815401808255809150506001900390600052602060002001600090919091909150908051906020019061043b9291906105b7565b505050565b6001818154811061045057600080fd5b90600052602060002001600091509050805461046b90610d08565b80601f016020809104026020016040519081016040528092919081815260200182805461049790610d08565b80156104e45780601f106104b9576101008083540402835291602001916104e4565b820191906000526020600020905b8154815290600101906020018083116104c757829003601f168201915b505050505081565b6000806002836040516104ff9190610a6e565b908152602001604051809103902060000160009054906101000a900460ff1661055d576040517f08c379a000000000000000000000000000000000000000000000000000000000815260040161055490610d86565b60405180910390fd5b600060028460405161056f9190610a6e565b90815260200160405180910390209050806001015481600201549250925050915091565b60008054906101000a900473ffffffffffffffffffffffffffffffffffffffff1681565b8280546105c390610d08565b90600052602060002090601f0160209004810192826105e5576000855561062c565b82601f106105fe57805160ff191683800117855561062c565b8280016001018555821561062c579182015b8281111561062b578251825591602001919060010190610610565b5b509050610639919061063d565b5090565b5b8082111561065657600081600090555060010161063e565b5090565b6000604051905090565b600080fd5b600080fd5b600080fd5b600080fd5b6000601f19601f8301169050919050565b7f4e487b7100000000000000000000000000000000000000000000000000000000600052604160045260246000fd5b6106c182610678565b810181811067ffffffffffffffff821117156106e0576106df610689565b5b80604052505050565b60006106f361065a565b90506106ff82826106b8565b919050565b600067ffffffffffffffff82111561071f5761071e610689565b5b61072882610678565b9050602081019050919050565b82818337600083830152505050565b600061075761075284610704565b6106e9565b90508281526020810184848401111561077357610772610673565b5b61077e848285610735565b509392505050565b600082601f83011261079b5761079a61066e565b5b81356107ab848260208601610744565b91505092915050565b60008115159050919050565b6107c9816107b4565b81146107d457600080fd5b50565b6000813590506107e6816107c0565b92915050565b6000806040838503121561080357610802610664565b5b600083013567ffffffffffffffff81111561082157610820610669565b5b61082d85828601610786565b925050602061083e858286016107d7565b9150509250929050565b60006020828403121561085e5761085d610664565b5b600082013567ffffffffffffffff81111561087c5761087b610669565b5b61088884828501610786565b91505092915050565b6000819050919050565b6108a481610891565b81146108af57600080fd5b50565b6000813590506108c18161089b565b92915050565b6000602082840312156108dd576108dc610664565b5b60006108eb848285016108b2565b91505092915050565b600081519050919050565b600082825260208201905092915050565b60005b8381101561092e578082015181840152602081019050610913565b8381111561093d576000848401525b50505050565b600061094e826108f4565b61095881856108ff565b9350610968818560208601610910565b61097181610678565b840191505092915050565b600060208201905081810360008301526109968184610943565b905092915050565b6109a781610891565b82525050565b60006040820190506109c2600083018561099e565b6109cf602083018461099e565b9392505050565b600073ffffffffffffffffffffffffffffffffffffffff82169050919050565b6000610a01826109d6565b9050919050565b610a11816109f6565b82525050565b6000602082019050610a2c6000830184610a08565b92915050565b600081905092915050565b6000610a48826108f4565b610a528185610a32565b9350610a62818560208601610910565b80840191505092915050565b6000610a7a8284610a3d565b915081905092915050565b7f43616e277420766f7465206f6e207468697320636f696e000000000000000000600082015250565b6000610abb6017836108ff565b9150610ac682610a85565b602082019050919050565b60006020820190508181036000830152610aea81610aae565b9050919050565b7f596f75206861766520616c726561647920766f74656420666f7220746869732060008201527f636f696e00000000000000000000000000000000000000000000000000000000602082015250565b6000610b4d6024836108ff565b9150610b5882610af1565b604082019050919050565b60006020820190508181036000830152610b7c81610b40565b9050919050565b7f4e487b7100000000000000000000000000000000000000000000000000000000600052601160045260246000fd5b6000610bbd82610891565b91507fffffffffffffffffffffffffffffffffffffffffffffffffffffffffffffffff821415610bf057610bef610b83565b5b600182019050919050565b6000608082019050610c10600083018761099e565b610c1d602083018661099e565b610c2a6040830185610a08565b8181036060830152610c3c8184610943565b905095945050505050565b7f4f6e6c7920746865206f776e65722063616e20637265617465207469636b657260008201527f7300000000000000000000000000000000000000000000000000000000000000602082015250565b6000610ca36021836108ff565b9150610cae82610c47565b604082019050919050565b60006020820190508181036000830152610cd281610c96565b9050919050565b7f4e487b7100000000000000000000000000000000000000000000000000000000600052602260045260246000fd5b60006002820490506001821680610d2057607f821691505b60208210811415610d3457610d33610cd9565b5b50919050565b7f4e6f2073756368205469636b657220446566696e656400000000000000000000600082015250565b6000610d706016836108ff565b9150610d7b82610d3a565b602082019050919050565b60006020820190508181036000830152610d9f81610d63565b905091905056fea2646970667358221220a171b41e0262fa3aa51ec76a73f71d69e74075518efda9805510a0af298bdfa064736f6c63430008090033",
    "linkReferences": {},
    "deployedLinkReferences": {}
}